:10E000000C943E700C945B700C945B700C945B7081
:10E010000C945B700C945B700C945B700C945B7054
:10E020000C945B700C945B700C945B700C945B7044
:10E030000C945B700C945B700C945B700C945B7034
:10E040000C945B700C945B700C945B700C945B7024
:10E050000C945B700C945B700C945B700C945B7014
:10E060000C945B700C945B700C945B700C945B7004
:10E070000C945B700C945B700C945B7011241FBE4D
:10E08000CFEFD0E1DEBFCDBF11E0A0E0B1E0E6E22E
:10E09000F4EE02C005900D92A630B107D9F711E059
:10E0A000A6E0B1E001C01D92AC30B107E1F70E94DB
:10E0B00078700C9411720C940070982F8091C000AD
:10E0C00085FFFCCF9093C60008958091C00087FF24
:10E0D000FCCF8091C600089588B1817088B981E035
:10E0E00085BF15BEE0910601F091070109950895DD
:10E0F0002F923F924F925F926F927F928F929F9258
:10E10000AF92BF92CF92DF92EF92FF920F931F9345
:10E11000CF93DF9304B603FE06C0E0910601F091B1
:10E120000701099508C088E10FB6F8948093600054
:10E13000109260000FBE1092C5008AE08093C40068
:10E1400086E08093C20088E18093C1003898409AAD
:10E150000E946C700E946570863509F478C087351E
:10E16000C8F48C3409F40BC18D3450F4823409F4B2
:10E1700080C0853409F403C1813409F04EC128C040
:10E18000833509F45BC0843509F44BC0803509F050
:10E1900044C1F5C0853669F1863648F48136B1F060
:10E1A000823609F45EC0883509F037C157C0803720
:10E1B00009F452C0813720F4873609F02EC1E1C03E
:10E1C000833791F1843709F028C136C089E526C12B
:10E1D0000E946570182F0E946570912E882490E02F
:10E1E000882999299093090180930801880F991F24
:10E1F00013C080E090E00CC007B600FCFDCFF99999
:10E20000FECF23E0FC0120935700E89580509F4FFC
:10E2100040EE8030940780F390930B0180930A01C5
:10E22000AEC00E946570ABC089E00E945D7086E957
:10E230000E945D708EE1F2C084E717C0C0E0D1E0BB
:10E2400003C00E945D70219688818823D1F780E306
:10E250000E945D7082E3E2C083E5E0C00E946C70C2
:10E260008EC089E50E945D7081E00E945D7080E053
:10E27000D5C00E946570182F0E946570712E6624AB
:10E28000082F10E00629172981E00130180708F04F
:10E29000C4C00E946570863409F050C080910A01A4
:10E2A00090910B018150904E18F080E00E945D70BB
:10E2B000A0900A01B0900B0107B600FCFDCF6801E9
:10E2C000D694C7947501C0E0D0E016C00E94657076
:10E2D000082F0E946570582E442410E00429152947
:10E2E00041E00801F70140935700E895112482E0CE
:10E2F00090E0E80EF91E2196CC15DD0538F3960165
:10E30000220F331F2A0D3B1D07B600FCFDCFF999E4
:10E31000FECF80910A0190910B0145E0FC014093F2
:10E320005700E89507B600FCFDCF81E180935700C8
:10E33000E89530930B0120930A0121C0853409F040
:10E340006CC0C0E0D0E018C00E9465702091080148
:10E3500030910901F999FECF1FBA32BD21BD80BDB0
:10E360000FB6F894FA9AF99A0FBE2F5F3F4F309389
:10E370000901209308012196C017D10728F38DE0E9
:10E380004DC00E946570182F0E946570312E2224A6
:10E39000E82EFF24E228F3280E9465708634E9F411
:10E3A000C0E0D0E016C0E0910A01F0910B010591A8
:10E3B0001491802F0E945D70812F0E945D7080916A
:10E3C0000A0190910B01029690930B0180930A0130
:10E3D0002296CE15DF0538F3BDCE8534F1F410E07A
:10E3E00016C08091080190910901F999FECF92BD64
:10E3F00081BDF89A80B50E945D708091080190916E
:10E400000901019690930901809308011F5F812FF4
:10E4100090E08E159F0528F39DCE8FE30E945D70DE
:06E4200099CEF894FFCF35
:06E4260046444C20760084
:040000030000E00019
:00000001FF
